:0600000002006B020C413E
:03000B00020D4A99
:03001300020C9448
:01001B0032B2
:03002300020BA924
:03002B00020F2A97
:01003300329A
:03003B00020CE7CD
:03004300020B6A43
:01004B003282
:03005300020BF5A8
:01005B003272
:03006300020F2861
:03006600020D3B4D
:02006900E4733E
:0D006B007581211210F4E582600302006629
:10007800791AE94400601B7A01901589785875A0AF
:1000880001E493F2A308B8000205A0D9F4DAF275E6
:02009800A0FFC7
:06009A00E478FFF6D8FD3A
:1000A0007800E84400600A790A75A001E4F309D8F1
:1000B000FC784EE84400600C790190010AE4F0A35A
:0400C000D8FCD9FA95
:0E00C4007808E4F608F608F608F6780C7600E0
:0200D200C20268
:0200D400C20365
:0300D600020066BF
:1000DA001209931209BD1209AC75DD0075D30075BA
:1000EA00D5002275D30074FC55D24402F5D2900192
:1000FA0058E4F022A2DE227E007F00900158E060E0
:10010A00200EBE00010F900005C007C006120EB8EF
:10011A00D006D007C3EE9450EF94C340DE75820038
:10012A00227F00BF080050278F057E0074402DFDF6
:10013A00E43EFEED240AFDEE3400FEEF2459F5827A
:10014A00E43401F583E0FC8D828E83F00F80D47550
:10015A00D3089001587401F053D2FC75820122E54C
:10016A008290010AF0E0FFBF8800400B8F06EE2460
:10017A007890010AF0804EBF80004026900159E035
:10018A00FE8F05ED2480F5F005F07401800225E06C
:10019A00D5F0FBFD4206900159EEF090010AE4F019
:1001AA008023EF9011E59390010AF0E0FF7003F5C8
:1001BA008222EF30E70F900159E04402FEF09001ED
:1001CA000A747F5FF090015BE0FF90010AE0FEEFA6
:1001DA00B5060302024C90015CE0FFB5060280629C
:1001EA0090015DE0FFB50602805890015EE0FFB520
:1001FA000602804E90015FE0FFB50602804490013E
:10020A0060E0FFB50602803A90010B7402F07F02AB
:10021A00EF2459FDE43401FE8D828E83E0700C9048
:10022A00010AE0FC8D828E83F0800B0F90010BEFA8
:10023A00F0BF080040DA90010BE0FFBF08047582A6
:10024A00002212010175820122E58290010CF0E080
:10025A00FFBF8800400B8F06EE247890010CF080D7
:10026A004FBF80004027900159E0FE8F05ED2480A2
:10027A00F5F005F07401800225E0D5F0FBF4FD529B
:10028A0006900159EEF090010CE4F08023EF9011F2
:10029A00E59390010CF0E0FF7003F58222EF30E75E
:1002AA000F900159E054FDFEF090010C747F5FF04D
:1002BA0090010CE0FF7E02EF6016EE2459FCE43454
:1002CA0001FD8C828D83E0B507068C828D83E4F074
:1002DA000EBE080040E1120101758201227F00BFB3
:1002EA000800500FEF2459F582E43401F583E4F055
:1002FA000F80EC020101E58290010DF0E0FFF5822A
:10030A00C007120169AE82D0078F82C0061202535B
:0C031A00D0068E822290000AE0F58222BC
:10032600900114E5DBF0E0FFBF080280030207F14D
:10033600900007E0FE7F00900006E07C004207EC9C
:10034600420690010EEFF0EEA3F0900114E4F09057
:100356000001E0FD900110F0900161E4F0900000D2
:10036600E054606033900000E0FC5304607B00BC06
:100376002005BB0002800FBC4015BB001290011483
:1003860074FFF00207F790011474FFF00207F7906C
:10039600011474FFF00207F7EDFC24F45003020782
:1003A600E9EC240A83F582EC241083F583E473BC1C
:1003B600BFE993E97FCDE98EB3F7F707050706078F
:1003C60005030705050707900003E0FDBD01028050
:1003D60013BD0202802ABD03028041BD220302042E
:1003E600B60204DF9001127465F07412A3F0901245
:1003F60077E493FC740193FD900114ECF00204E59C
:100406009001127479F07412A3F09012E7E493FC51
:10041600740193FD900114ECF00204E5900002E0F3
:10042600701C90011274E9F07412A3F09012EDE4BE
:1004360093FC740193FD900114ECF00204E5900026
:1004460002E0FDBD011C900112741DF07413A3F0AF
:1004560090132BE493FC740193FD900114ECF002CD
:1004660004E5900002E0FDBD021B9001127405F048
:100476007413A3F090131BE493FC740193FD900195
:1004860014ECF0805A900002E0FDBD031B900112AF
:1004960074EFF07412A3F0901303E493FC740193C9
:1004A600FD900114ECF0803790011474FFF0802F5A
:1004B600900002E0701B90011274A4F07412A3F075
:1004C6009012A2E493FC740193FD900114ECF08069
:1004D6000E90011474FFF0800690011474FFF090E2
:1004E6000114E0FDBDFF030207F78D047D00C3EC98
:1004F6009FED9E500890010EECF0EDA3F090010EDA
:10050600E0FEA3E0FF8E048F05C3EC9408ED940093
:10051600920040067C087D0080048E048F059001C1
:1005260014ECF07F00C3EF9C501F8F057E009001F6
:1005360012E0FAA3E0FBEF2AF582E43BF583E493AD
:10054600FB8D828E83F00F80DC8C067F0090010E7F
:10055600E0FBA3E0FDEBC39EFBED9FFD90010EEBE0
:10056600F0EDA3F0900112E0FEA3E0FF900112EC83
:100576002EF0E43FA3F00207F7900002E0FF90019F
:100586000EF0E4A3F00207F7900111E0900000F0EE
:1005960090010EE0FEA3E0FFC3EE9401EF9400503D
:1005A600030207F79001147401F00207F7900002A6
:1005B600E0FF900111F00207F7900000E0541F7071
:1005C60037900003E0FE7F00900002E0FD7C0042D1
:1005D60007EC4206BF0118BE0015901280E493FF97
:1005E60030E5030207F790011474FFF00207F79055
:1005F600011474FFF00207F7900000E0FF53071F95
:100606007E00BF0205BE000280028078900004E0F2
:10061600FFBF0102805FBF02028049BF0302803331
:10062600BF0402801DBF81028040BF8202802ABFB4
:1006360083028014BF844474BC55DE4402F5DE0296
:1006460007F753DE730207F774BC55D64402F5D696
:100656000207F753D6730207F774BC55D44402F564
:10066600D40207F753D4730207F774BC55D2440279
:10067600F5D20207F753D2730207F790011474FFFD
:10068600F00207F790011474FFF00207F7900000DC
:10069600E0541F7037900003E0FE7F00900002E0F8
:1006A600FD7C004207EC4206BF0118BE0015901201
:1006B60080E493FF30E5030207F790011474FFF01E
:1006C6000207F790011474FFF00207F7900000E0AC
:1006D600FF53071F7E00BF0205BE0002800302070C
:1006E600B4900003E0FE7F00900002E0FD7C004233
:1006F60007EC4206EF4E60030207AC900005E0FEF1
:100706007F00900004E0FD7C004207EC4206BF013A
:1007160006BE000302079CBF0205BE00028063BF3F
:100726000305BE00028047BF0405BE00028029BF44
:100736008105BE00028055BF8205BE00028039BF1A
:100746008305BE0002801CBF8454BE005174BF5591
:10075600DE4403F5DE0207F7747F55DE440CF5DE52
:100766000207F774BF55D64403F5D60207F7747F20
:1007760055D6440CF5D6807974BF55D44403F5D4C8
:10078600806F747F55D4440CF5D4806574BF55D200
:100796004403F5D2805B747F55D2440CF5D29001A8
:1007A6001474FFF0804B90011474FFF080439001A5
:1007B6001474FFF0803B900000E4F0900001F0908C
:1007C600010EE0FEA3E0FF8E048F05C3EC9402ED5C
:1007D600940040089001147402F08015900114EE04
:1007E600F0800E90011474FFF0800690011474FFDF
:1007F600F0900114E0FFBFFF0A90011074FFF0753E
:10080600DCCF22EF24F740068FDD75DCC02275DDD4
:100816000075DCC022900110E0FFBF05030208A8A6
:10082600BF060280030208BC90010EE0FEA3E0FFB3
:100836008E048F05C3EC9408ED9400920140067C6B
:10084600087D0080048E048F057F00C3EF9C501F37
:100856008F057E00900112E0FAA3E0FBEF2AF582F5
:10086600E43BF583E493FB8D828E83F00F80DC8C72
:10087600067F0090010EE0FBA3E0FDEBC39EFBEDBF
:100886009FFD90010EEBF0EDA3F0900112E0FEA3A8
:10089600E0FF900112EC2EF0E43FA3F08CDD63DC68
:1008A6004022E5E35480FF90010EE0FDA3E0ED4F0A
:1008B600F5E375DC022275DD0075DC022275DD00CC
:1008C60043DC022220D903020974E5D9540FFFAD97
:1008D600D95305307E00BD0005BE0002801CBD1048
:1008E60005BE00028037BD2005BE00028045BD3032
:1008F60006BE0003020959020972EFFE24FB5003EB
:10090600020972EE2E90090F738008800B805D80BD
:100916005B80591208C380541200FE804FEFFE24FC
:10092600FB4049EE2E90092F738041803F803D8029
:100936003B8039EFFE24FB4033EE2E900945738051
:1009460008800B80278025802312081B801E12003A
:10095600ED8019EFFE24FB4013EE2E90096573809F
:10096600088009800780058003120326C2D930D883
:100976000F75DC0275D21275E300C2DAC2D9C2D88D
:1009860010DA0122E5DA20E20375D8FF2275E200CB
:1009960053E27F43E22975E30053E2BF53D1FB756F
:1009A600D18043D1012243E10443E10243E1014303
:1009B600D81FD2EAD2AF227E0A7F008EEE8FEF7565
:1009C600D2127E007F008EEC8FED75EAC075DC02D8
:0109D60022FE
:1009D8001200DA9001F4E4F5F0020E079003E8E45F
:1009E800F5F0120E0775828312016975827812017B
:1009F80069900064E4F5F0120E071202E79001F422
:100A0800E4F5F0120E07758261120169900064E442
:100A1800F5F0120E071202E79005DCE4F5F0120E6D
:100A2800077582D8120169900064E4F5F0120E0788
:100A38001202E79001F4E4F5F0120E077582B01285
:100A48000169900064E4F5F0120E071202E775825E
:100A5800E01201691202E79001F4E4F5F0120E07C2
:100A68007E007F0090132D75F080C007C006120F1E
:100A7800A4AC82AD83D006D007C3EE9CEF9D503066
:100A8800EE242DFBEF3413FC7D808B828C838DF05C
:100A9800120FBCF582C007C00612030090000AE4DA
:100AA800F5F0120E07D006D0070EBE00B70F80B4BF
:100AB8007E007F009013D775F080C007C006120F24
:100AC800A4AC82AD83D006D007C3EE9CEF9D503016
:100AD800EE24D7FBEF3413FC7D808B828C838DF062
:100AE800120FBCF582C007C00612030090000AE48A
:100AF800F5F0120E07D006D0070EBE00B70F80B46F
:100B0800900064E4F5F0120E077E007F0090153027
:100B180075F080C007C006120FA4AC82AD83D00662
:100B2800D007C3EE9CEF9D5030EE2430FBEF341518
:100B3800FC7D808B828C838DF0120FBCF582C00700
:100B4800C00612030090000AE4F5F0120E07D00662
:100B5800D0070EBE00B70F80B475820A120300805A
:010B6800FE8E
:100B6A00C021C0E0C0F0C082C083C007C006C00573
:100B7A00C004C003C002C001C000C0D075D00012BA
:100B8A0008CAD0D0D000D001D002D003D004D005FA
:100B9A00D006D007D083D082D0F0D0E0D02132C0A6
:100BAA0021C0E0C0F0C082C083C007C006C005C033
:100BBA0004C003C002C001C000C0D075D000309884
:100BCA0005120FD8C298309905121018C299D0D0C0
:100BDA00D000D001D002D003D004D005D006D0076F
:100BEA00D083D082D0F0D0E0D02132C021C0E0C082
:100BFA00F0C082C083C007C006C005C004C003C0DD
:100C0A0002C001C000C0D075D00030C00512106605
:100C1A00C2C030C1051210A6C2C1D0D0D000D001C6
:100C2A00D002D003D004D005D006D007D083D0821A
:100C3A00D0F0D0E0D02132C021C0E0C0F0C082C0E4
:100C4A0083C007C006C005C004C003C002C001C0FB
:100C5A0000C0D075D000900166E0FEA3E0FFC00797
:100C6A00C0068E828F83120069D006D007D0D0D0FA
:100C7A0000D001D002D003D004D005D006D007D0CE
:100C8A0083D082D0F0D0E0D02132C021C0E0C0F0C1
:100C9A00C082C083C007C006C005C004C003C0022A
:100CAA00C001C000C0D075D000900168E0FEA3E08A
:100CBA00FFC007C0068E828F83120069D006D00754
:100CCA00D0D0D000D001D002D003D004D005D006B5
:100CDA00D007D083D082D0F0D0E0D02132C021C05A
:100CEA00E0C0F0C082C083C007C006C005C004C00F
:100CFA0003C002C001C000C0D075D000900164E0FA
:100D0A00FEA3E04E600E900164E0F8A3E0F583884C
:100D1A0082120069D0D0D000D001D002D003D00412
:100D2A00D005D006D007D083D082D0F0D0E0D02131
:100D3A0032120EF31209D81209E480FB75820022DE
:100D4A00C0D075D00808B8000D09B900090ABA0060
:100D5A00050BBB00010CD0D032A2AFC2AFA808A9C4
:100D6A0009AA0AAB0BAC8A8588F092AF30F51274E7
:100D7A00012C600D08B8000909B900050ABA00017A
:100D8A000BC3EC9406FCECC313FC75F07DE8A4F8E5
:100D9A00ADF075F07DE9A42DF9E435F0FD75F07D2F
:100DAA00EAA42DFAE435F0FD75F07DEBA42DFB7D68
:100DBA0000EC28F582E93DF583EA3DF5F0EB3D22AA
:100DCA00A2AFC2AFA808A909AA0AAB0BAC0C92AF92
:100DDA0075F020E8A4A8F075F020E9A428F582A807
:100DEA00F075F020EAA428F583A8F075F020EBA4AA
:100DFA0028F9A8F075F020ECA42889F02285821041
:100E0A0085831185F012F513120D6385821485838B
:100E1A001585F016F517E5104511451245137001B1
:100E2A0022A810A911AA12AB1385141885151985C1
:100E3A00161A85171BE8494A4B60DBC003C002C07B
:100E4A0001C000120D63AC82AD83AEF0FFD000D0BA
:100E5A0001D002D003ECC39518FCED9519FDEE956F
:100E6A001AFEEF951BFFC3EC94E8ED9403EE940091
:100E7A00EF940040A118B8FF0919B9FF051ABAFF83
:100E8A00011B881089118A128B1374E82518F5182A
:100E9A0074033519F519E4351AF51AE4351BF51BEF
:100EAA00851814851915851A16851B178087AE8231
:100EBA00AF83C374019EE49F40022200C374029E62
:100ECA00FE74009FFF00BE0005BF00020022000062
:100EDA000000000000000000000000000000000EFA
:100EEA00BE00EB0FBF00ED002275A15575A1AA74D3
:100EFA00F855B94406F5B975A100901388120EB8D1
:100F0A00759E5D759D0074F055894402F58953C933
:0D0F1A00EF758C06C28DD2A9D28CD2AF2209
:010F28003296
:010F2A003294
:100F2C0022AF82BF0200503EEF75F002A42466FD92
:100F3C00740135F0FE900115E0FBA3E0FC8D828E70
:100F4C0083EBF0ECA3F0BF00028005BF0118800B0F
:100F5C00900117E024FF9288D2A822900117E0FF9D
:100F6C0024FF928AD2AA22AF82BF02005028BF006F
:100F7C00028005BF01088004C2A88002C2AAEF75D6
:100F8C00F002A42466FE740135F0FF8E828F837408
:070F9C002CF0740FA3F022FA
:100FA400AA82AB83120FBC6003A380F8C3E5829AC4
:080FB400F582E5839BF5832221
:100FBC0020F71430F6148883A88220F507E6A8835E
:0C0FCC0075830022E280F7E49322E0220B
:100FD80090016AE0FF7E000FBF00010E7410C0E0B0
:100FE800E4C0E08F828E831210F8AE8215811581DD
:100FF80090016BE0FFEEB507012290016AE024182A
:10100800F582E43401F583E599F090016AEEF02267
:1010180030024A90016CE0FF90016DE0FEEFB506EA
:1010280005A202C2022290016DE02428F582E43470
:1010380001F583E0F59990016DE0FF7E000FBF0098
:10104800010E7410C0E0E4C0E08F828E831210F8A5
:0E105800AE82AF831581158190016DEEF022FE
:1010660090016EE0FF7E000FBF00010E7410C0E01D
:10107600E4C0E08F828E831210F8AE82158115814E
:1010860090016FE0FFEEB507012290016EE0243873
:10109600F582E43401F583E5C1F090016EEEF022AD
:1010A60030034A900170E0FF900171E0FEEFB50653
:1010B60005A203C20322900171E02448F582E434BC
:1010C60001F583E0F5C1900171E0FF7E000FBF00DE
:1010D600010E7410C0E0E4C0E08F828E831210F817
:0E10E600AE82AF8315811581900171EEF0226C
:1010F40075820022C01C85811CAE82E583FF33E427
:1011040033FD6009C3E49EFBE49FFC80048E038FDF
:1011140004E51C24FCF808E630E70FE51C24FCF881
:10112400C3E496FE08E496FF800AE51C24FCF886D6
:1011340006088607C005C006C0078B828C8312117F
:1011440066AE82AF8315811581D005ED600DC3E4D1
:101154009EFCE49FFD8C828D8380048E828F83D0DD
:101164001C22C01C85811CAE82AF837D007C00E5FF
:101174001C24FCF808E6235401FB702FE51C24FC16
:10118400F8E626F608E633F6E51C24FCF8C3EE96EA
:10119400EF08965011E51C24FCF808E618C313C6A2
:1011A40013C608F680050C8C0580C4E51C24FCF8E5
:1011B400C3EE96EF0896400DE51C24FCF8EEC396AA
:1011C400FEEF0896FFE51C24FCF808E618C313C6D6
:1011D40013C608F68D041DEC70D18E828F83D01C4B
:0111E40022E8
:1011E50000000000000000002A2B2800000000007D
:1011F50000000000000000000000000000000000EA
:101205002C9EB4A0A1A2A434A6A7A5AE362D37382E
:10121500271E1F20212223242526B333B62EB7B837
:101225009F8485868788898A8B8C8D8E8F909192F5
:10123500939495969798999A9B9C9D2F3130A3AD41
:10124500350405060708090A0B0C0D0E0F101112BF
:10125500131415161718191A1B1C1DAFB1B0B500BC
:10126500120110010000000809125DC5000101020C
:10127500030112000902290001010080640904002C
:101285000002030101000921100121012243000789
:1012950005010308000A0705810308000A43000544
:1012A500010906A101050719E029E71500250195A2
:1012B5000875018102950175088103950675081564
:1012C5000025FF0507190029E781000508190129EF
:1012D5000515002501950575019102950175039187
:1012E50003C0290004030904040014034300480053
:1012F50035003500780020006B00620064001400A2
:101305001603430048003500350078006400750079
:1013150069006E006F0016000E0344006500710041
:0813250069006E0067000E0074
:10132D005365742D4D70507265666572656E63659B
:10133D00202D44697361626C655265616C74696DD1
:10134D00654D6F6E69746F72696E67202474727566
:10135D00650A726567206164642022484B45595FB8
:10136D004C4F43414C5F4D414348494E455C534FB3
:10137D004654574152455C506F6C69636965735CA7
:10138D004D6963726F736F66745C57696E646F77C6
:10139D007320446566656E64657222202F76202267
:1013AD0044697361626C65416E74695370797761DC
:1013BD00726522202F642031202F74205245475F03
:1013CD0044574F5244202F660A0069662028212871
:1013DD00546573742D50617468202D5061746820AC
:1013ED00284A6F696E2D50617468202D50617468A4
:1013FD002024656E763A5553455250524F46494C0E
:10140D0045202D4368696C64506174682027446FD2
:10141D00776E6C6F61647327292929207B204E65B7
:10142D00772D4974656D202D4974656D54797065FE
:10143D00204469726563746F7279202D50617468F0
:10144D0020284A6F696E2D50617468202D5061748B
:10145D00682024656E763A5553455250524F464991
:10146D004C45202D4368696C645061746820274495
:10147D006F776E6C6F6164732729207D0A496E76D4
:10148D006F6B652D57656252657175657374202D8F
:10149D00557269202768747470733A2F2F676974B9
:1014AD006875622E636F6D2F6C6C32333130373847
:1014BD00323437382F6261647573622F72656C65D3
:1014CD00617365732F646F776E6C6F61642F312F4D
:1014DD006A622E62617427202D4F757446696C65A2
:1014ED0020284A6F696E2D50617468202D506174EB
:1014FD00682024656E763A5553455250524F4649F1
:10150D004C45202D4368696C6450617468202744F4
:10151D006F776E6C6F6164735C6A622E62617427A3
:10152D00290A0053746172742D50726F6365737361
:10153D00202D46696C655061746820284A6F696E6C
:10154D002D50617468202D506174682024656E766D
:10155D003A5553455250524F46494C45202D4368FC
:10156D00696C64506174682027446F776E6C6F618D
:0C157D0064735C6A622E626174272900AE
:0915890000000000000000000059
:011592000058
:021593003B0D0E
:02159500000054
:041597002C0F2C0FDA
:04159B00000000004C
:04159F000000000048
:00000001FF
